1                                         High Level Assembler Option Summary                                   Page    1
-                                                                                            HLASM R6.0  2015/10/06 15.21
0  No Overriding ASMAOPT Parameters
   Overriding Parameters-  NODECK,OBJECT,EXIT(INEXIT(FPLHLASX(00D7F138)),OBJEXIT(FPLHLASX(00D7F138)),PRTEXIT(FPLHLASX(00D
   7F138)),ADEXIT(FPLHLASX(00D7F138))),ADATA,asa
   No Process Statements


   Options for this Assembly
03   ADATA
     ALIGN
 3   ASA
     BATCH
     CODEPAGE(047C)
   NOCOMPAT
   NODBCS
 3 NODECK
     DXREF
     ESD
     EXIT
 3       INEXIT(FPLHLASX(00D7F138))
       NOLIBEXIT
 3       PRTEXIT(FPLHLASX(00D7F138))
 3       OBJEXIT(FPLHLASX(00D7F138))
 3       ADEXIT(FPLHLASX(00D7F138))
       NOTRMEXIT
     FLAG(0,ALIGN,CONT,EXLITW,NOIMPLEN,NOPAGE0,PUSH,RECORD,NOSUBSTR,USING0)
   NOFOLD
   NOGOFF
   NOINFO
     LANGUAGE(EN)
   NOLIBMAC
     LINECOUNT(60)
     LIST(121)
     MACHINE(,NOLIST)
     MXREF(SOURCE)
 3   OBJECT
     OPTABLE(UNI,NOLIST)
   NOPCONTROL
   NOPESTOP
   NOPROFILE
   NORA2
   NORENT
     RLD
     RXREF
     SECTALGN(8)
     SIZE(MAX)
   NOSUPRWARN
     SYSPARM()
   NOTERM
   NOTEST
     THREAD
   NOTRANSLATE
     TYPECHECK(MAGNITUDE,REGISTER)
     USING(NOLIMIT,MAP,WARN(15))
   NOWORKFILE
     XREF(SHORT,UNREFS)
1                                         High Level Assembler Option Summary                                   Page    2
-                                                                                            HLASM R6.0  2015/10/06 15.21
0
   No Overriding DD Names
1                                              External Symbol Dictionary                                       Page    3
-Symbol   Type   Id     Address  Length   Owner Id Flags Alias-of                            HLASM R6.0  2015/10/06 15.21
0NI        SD 00000001 00000000 00002018             00
1                                                                                                               Page    4
   Active Usings: None
0  Loc  Object Code    Addr1 Addr2  Stmt   Source Statement                                  HLASM R6.0  2015/10/06 15.21
0                                      1 * Stand-alone test for NI, NIY, OI, OIY, XI, XIY                        00010000
                                       2 * This file was put into the public domain 2015-10-05                   00020000
                                       3 * by John P. Hartmann.  You can use it for anything you like,           00030000
                                       4 * as long as this notice remains.                                       00040000
0000000                00000 02018     6 ni start 0                                                              00060000
                                       7  gbla &a Compensate for SETA limitation                                 00070000
0                                      9  macro                                                                  00090000
                                      10  display &len                                                           00100000
                                      11  gbla &a                                                                00110000
                                      12 &ac setc a2x(&a)                                                        00120000
                                      13  punch '* r &ac..&len'                                                  00130000
                                      14  mend                                                                   00140000
0                                     16  macro                                                                  00160000
                                      17  comp &len,&want,&text=                                                 00170000
                                      18  punch '* *Compare'                                                     00180000
                                      19  display &len                                                           00190000
                                      20 &wt setc '&want'(2,k'&want-2)                                           00200000
                                      21  aif (k'&text gt 0).havetxt                                             00210000
                                      22  punch '* *Want               &wt.'                                     00220000
                                      23  mexit                                                                  00230000
                                      24 .havetxt anop ,                                                         00240000
                                      25 &ts setc '&text'(2,k'&text-2)                                           00250000
                                      26  punch '* *Want "&ts." &wt.'                                            00260000
                                      27  mend                                                                   00270000
0                                     29  macro                                                                  00290000
                                      30  dotest &op                                                             00300000
                                      31  ex 1,inst_&op                                                          00310000
                                      32  ipm 4                                                                  00320000
                                      33  stcm 4,8,b.&op.cc                                                      00330000
                                      34  ex 1,inst_&op.y                                                        00340000
                                      35  ipm 4                                                                  00350000
                                      36  stcm 4,8,b.&op.ycc                                                     00360000
                                      37  mend                                                                   00370000
0                                     39  punch ':test logicImmediate'                                           00390000
                                      40  punch ':btst z'                                                        00400000
 000000                               41  ds xl(x'1a0')                                                          00410000
 0001A0 0000000180000000              42  dc x'0000000180000000'                                                 00420000
 0001A8 0000000000000200              43  dc ad(go_ni)                                                           00430000
 0001B0                               44  ds xl(x'1d0'-x'1a0'-16)                                                00440000
 0001D0 0002000180000000              45  dc x'0002000180000000'                                                 00450000
 0001D8 FFFFFFFFDEADDEAD              46  dc ad(x'deaddead') Program new PSW                                     00460000
 0001E0                               47  ds xl(x'200'-x'1d0'-16)                                                00470000
                  R:0  00000          48  using ni,0                                                             00480000
 000200                               49 go_ni ds 0d                                                             00490000
 000200 1B00                          50  sr 0,0 Store one dword                                                 00500000
 000202 B2B0 0880      00880          51  stfle facilities                                                       00510000
 000206 D207 0888 0880 00888 00880    52  mvc faclist,facilities Save for display                                00520000
 00020C D407 0880 0890 00880 00890    53  nc facilities,fmask  Select bit 52                                     00530000
 000212 4100 0008            00008    54  la 0,8                                                                 00540000
 000216 4110 0001            00001    55  la 1,1                                                                 00550000
1                                                                                                               Page    5
   Active Usings: ni,R0
0  Loc  Object Code    Addr1 Addr2  Stmt   Source Statement                                  HLASM R6.0  2015/10/06 15.21
000021A 4120 0800            00800    56  la 2,nibytes                                                           00560000
                  R:2  00800          57 b using nibytes,2                                                       00570000
 00021E 1B44                          58  sr 4,4                                                                 00580000
 000220                               59 loop ds 0h                                                              00590000
                                      60    dotest ni                                                            00600000
 000220 4410 02BE            002BE    61+ ex 1,inst_ni                                                           01-00031
 000224 B222 0040                     62+ ipm 4                                                                  01-00032
 000228 BE48 2018            00818    63+ stcm 4,8,b.nicc                                                        01-00033
 00022C 4410 02C2            002C2    64+ ex 1,inst_niy                                                          01-00034
 000230 B222 0040                     65+ ipm 4                                                                  01-00035
 000234 BE48 2020            00820    66+ stcm 4,8,b.niycc                                                       01-00036
                                      67    dotest oi                                                            00610000
 000238 4410 02C8            002C8    68+ ex 1,inst_oi                                                           01-00031
 00023C B222 0040                     69+ ipm 4                                                                  01-00032
 000240 BE48 2028            00828    70+ stcm 4,8,b.oicc                                                        01-00033
 000244 4410 02CC            002CC    71+ ex 1,inst_oiy                                                          01-00034
 000248 B222 0040                     72+ ipm 4                                                                  01-00035
 00024C BE48 2030            00830    73+ stcm 4,8,b.oiycc                                                       01-00036
                                      74    dotest xi                                                            00620000
 000250 4410 02D2            002D2    75+ ex 1,inst_xi                                                           01-00031
 000254 B222 0040                     76+ ipm 4                                                                  01-00032
 000258 BE48 2038            00838    77+ stcm 4,8,b.xicc                                                        01-00033
 00025C 4410 02D6            002D6    78+ ex 1,inst_xiy                                                          01-00034
 000260 B222 0040                     79+ ipm 4                                                                  01-00035
 000264 BE48 2040            00840    80+ stcm 4,8,b.xiycc                                                       01-00036
 000268 4120 2001            00001    81    la 2,1(,2)                                                           00630000
 00026C 8910 0001            00001    82    sll 1,1                                                              00640000
 000270 A706 FFD8            00220    83  brct 0,loop                                                            00650000
 000274 1B44                          84  sr 4,4                                                                 00660000
 000276 1B55                          85  sr 5,5                                                                 00670000
 000278 9400 0848      00848          86  ni nizero,0                                                            00680000
 00027C B222 0050                     87  ipm 5                                                                  00690000
 000280 9600 0849      00849          88  oi nizero+1,0                                                          00700000
 000284 B222 0050                     89  ipm 5                                                                  00710000
 000288 97FF 084A      0084A          90  xi nizero+2,x'ff'                                                      00720000
 00028C B222 0050                     91  ipm 5                                                                  00730000
 000290 8D40 0008            00008    92  sldl 4,8                                                               00740000
 000294 1834                          93  lr 3,4                                                                 00750000
 000296 1B44                          94  sr 4,4                                                                 00760000
 000298 EB00 084C 0054 0084C          95  niy niyzero,0                                                          00770000
 00029E B222 0050                     96  ipm 5                                                                  00780000
 0002A2 EB00 084D 0056 0084D          97  oiy niyzero+1,0                                                        00790000
 0002A8 B222 0050                     98  ipm 5                                                                  00800000
 0002AC EBFF 084E 0057 0084E          99  xiy niyzero+2,x'ff'                                                    00810000
 0002B2 B222 0050                    100  ipm 5                                                                  00820000
 0002B6 8D40 0008            00008   101  sldl 4,8                                                               00830000
 0002BA B2B2 02E0      002E0         102  lpswe stop                                                             00840000
                                     103  drop 0                                                                 00850000
                  R:2  00800         104  using nibytes,2                                                        00860000
 0002BE 9400 2000      00800         105 inst_ni ni nibytes,0                                                    00870000
 0002C2 EB00 2800 0154 02000         106 inst_niy niy niybytes,0                                                 00880000
 0002C8 9600 2008      00808         107 inst_oi oi oibytes,0                                                    00890000
 0002CC EB00 2808 0156 02008         108 inst_oiy oiy oiybytes,0                                                 00900000
 0002D2 9700 2010      00810         109 inst_xi xi xibytes,0                                                    00910000
 0002D6 EB00 2810 0157 02010         110 inst_xiy xiy xiybytes,0                                                 00920000
1                                                                                                               Page    6
   Active Usings: nibytes,R2  b.nibytes,R2
0  Loc  Object Code    Addr1 Addr2  Stmt   Source Statement                                  HLASM R6.0  2015/10/06 15.21
00002E0                              111 stop ds 0d                                                              00930000
 0002E0 0002000180000000             112  dc x'0002000180000000'                                                 00940000
 0002E8 0000000000000000             113  dc ad(0)                                                               00950000
 0002F0                002F0 00800   114  org ni+x'800'                                                          00960000
 000800 FFFFFFFFFFFFFFFF             115 nibytes dc 8x'ff'                                                       00970000
 000808 0000000000000000             116 oibytes dc 8x'00'                                                       00980000
 000810 FFFFFFFFFFFFFFFF             117 xibytes dc 8x'ff'                                                       00990000
 000818 0000000000000000             118 nicc dc 8x'0'                                                           01000000
 000820 0000000000000000             119 niycc dc 8x'0'                                                          01010000
 000828 0000000000000000             120 oicc dc 8x'0'                                                           01020000
 000830 0000000000000000             121 oiycc dc 8x'0'                                                          01030000
 000838 0000000000000000             122 xicc dc 8x'0'                                                           01040000
 000840 0000000000000000             123 xiycc dc 8x'0'                                                          01050000
 000848 FF00FF00                     124 nizero dc al1(x'ff',0,x'ff',0)                                          01060000
 00084C FF00FF00                     125 niyzero dc al1(x'ff',0,x'ff',0)                                         01070000
 000850                00850 00880   126  org ni+x'880' To specific address                                      01080000
 000880                              127 facilities ds d                                                         01090000
 000888                              128 faclist ds d Original                                                   01100000
 000890 0000000000000800             129 fmask dc (52/8)x'00',x'08',x'00'                                        01110000
 000898                00898 02000   130  org ni+x'2000' To be sure long displacement is used                    01120000
 002000 FFFFFFFFFFFFFFFF             131 niybytes dc 8x'ff'                                                      01130000
 002008 0000000000000000             132 oiybytes dc 8x'00'                                                      01140000
 002010 FFFFFFFFFFFFFFFF             133 xiybytes dc 8x'ff'                                                      01150000
                                     134  punch ':etst 1'                                                        01160000
                       00800         135 tmp1 equ nibytes-ni                                                     01170000
                                     136 &a seta tmp1                                                            01180000
                                     137  comp 8,'01020408 10204080'                                             01190000
                                     138+ punch '* *Compare'                                                     01-00018
                                     140+ punch '* r 00000800.8'                                                 02-00013
                                     141+ punch '* *Want               01020408 10204080'                        01-00022
                       00808         142 tmp8 equ oibytes-ni                                                     01200000
                                     143 &a seta tmp8                                                            01210000
                                     144  comp 8,'01020408 10204080'                                             01220000
                                     145+ punch '* *Compare'                                                     01-00018
                                     147+ punch '* r 00000808.8'                                                 02-00013
                                     148+ punch '* *Want               01020408 10204080'                        01-00022
                       00810         149 tmp9 equ xibytes-ni                                                     01230000
                                     150 &a seta tmp9                                                            01240000
                                     151  comp 8,'FEFDFBF7 EFDFBF7F'                                             01250000
                                     152+ punch '* *Compare'                                                     01-00018
                                     154+ punch '* r 00000810.8'                                                 02-00013
                                     155+ punch '* *Want               FEFDFBF7 EFDFBF7F'                        01-00022
                                     156 * Condition codes                                                       01260000
                       00818         157 ccni equ nicc-ni                                                        01270000
                                     158 &a seta ccni                                                            01280000
                                     159  comp 8,'10101010 10101010'                                             01290000
                                     160+ punch '* *Compare'                                                     01-00018
                                     162+ punch '* r 00000818.8'                                                 02-00013
                                     163+ punch '* *Want               10101010 10101010'                        01-00022
                       00828         164 ccoi equ oicc-ni                                                        01300000
                                     165 &a seta ccoi                                                            01310000
                                     166  comp 8,'10101010 10101010'                                             01320000
                                     167+ punch '* *Compare'                                                     01-00018
                                     169+ punch '* r 00000828.8'                                                 02-00013
                                     170+ punch '* *Want               10101010 10101010'                        01-00022
1                                                                                                               Page    7
   Active Usings: nibytes,R2  b.nibytes,R2
0  Loc  Object Code    Addr1 Addr2  Stmt   Source Statement                                  HLASM R6.0  2015/10/06 15.21
0                      00838         171 ccxi equ xicc-ni                                                        01330000
                                     172 &a seta ccxi                                                            01340000
                                     173  comp 8,'10101010 10101010'                                             01350000
                                     174+ punch '* *Compare'                                                     01-00018
                                     176+ punch '* r 00000838.8'                                                 02-00013
                                     177+ punch '* *Want               10101010 10101010'                        01-00022
                       02000         178 niyo equ niybytes-ni                                                    01360000
                                     179 &a seta niyo                                                            01370000
                                     180  comp 8,'01020408 10204080'                                             01380000
                                     181+ punch '* *Compare'                                                     01-00018
                                     183+ punch '* r 00002000.8'                                                 02-00013
                                     184+ punch '* *Want               01020408 10204080'                        01-00022
                       02008         185 oiyo equ oiybytes-ni                                                    01390000
                                     186 &a seta oiyo                                                            01400000
                                     187  comp 8,'01020408 10204080'                                             01410000
                                     188+ punch '* *Compare'                                                     01-00018
                                     190+ punch '* r 00002008.8'                                                 02-00013
                                     191+ punch '* *Want               01020408 10204080'                        01-00022
                       02010         192 xiyo equ xiybytes-ni                                                    01420000
                                     193 &a seta xiyo                                                            01430000
                                     194  comp 8,'FEFDFBF7 EFDFBF7F'                                             01440000
                                     195+ punch '* *Compare'                                                     01-00018
                                     197+ punch '* r 00002010.8'                                                 02-00013
                                     198+ punch '* *Want               FEFDFBF7 EFDFBF7F'                        01-00022
                       00820         199 ccniy equ niycc-ni                                                      01450000
                                     200 &a seta ccniy                                                           01460000
                                     201  comp 8,'10101010 10101010'                                             01470000
                                     202+ punch '* *Compare'                                                     01-00018
                                     204+ punch '* r 00000820.8'                                                 02-00013
                                     205+ punch '* *Want               10101010 10101010'                        01-00022
                       00830         206 ccoiy equ oiycc-ni                                                      01480000
                                     207 &a seta ccoiy                                                           01490000
                                     208  comp 8,'10101010 10101010'                                             01500000
                                     209+ punch '* *Compare'                                                     01-00018
                                     211+ punch '* r 00000830.8'                                                 02-00013
                                     212+ punch '* *Want               10101010 10101010'                        01-00022
                       00840         213 ccxiy equ xiycc-ni                                                      01510000
                                     214 &a seta ccxiy                                                           01520000
                                     215  comp 8,'10101010 10101010'                                             01530000
                                     216+ punch '* *Compare'                                                     01-00018
                                     218+ punch '* r 00000840.8'                                                 02-00013
                                     219+ punch '* *Want               10101010 10101010'                        01-00022
                       00880         220 tmp2 equ facilities-ni                                                  01540000
                                     221 &a seta tmp2                                                            01550000
                                     222  comp  8,'00000000 00000800',text='Facilities list bit 52'              01560000
                                     223+ punch '* *Compare'                                                     01-00018
                                     225+ punch '* r 00000880.8'                                                 02-00013
                                     226+ punch '* *Want "Facilities list bit 52" 00000000 00000800'             01-00026
                                     227  punch '* * First doubleword of facilities list'                        01570000
                       00888         228 tmp3 equ faclist-ni                                                     01580000
                                     229 &a seta tmp3                                                            01590000
                                     230  display  8                                                             01600000
                                     231+ punch '* r 00000888.8'                                                 01-00013
                       00848         232 n0 equ nizero-ni                                                        01610000
                                     233 &a seta n0                                                              01620000
1                                                                                                               Page    8
   Active Usings: nibytes,R2  b.nibytes,R2
0  Loc  Object Code    Addr1 Addr2  Stmt   Source Statement                                  HLASM R6.0  2015/10/06 15.21
0                                    234  comp    8,'00000000 00000000'                                          01630000
                                     235+ punch '* *Compare'                                                     01-00018
                                     237+ punch '* r 00000848.8'                                                 02-00013
                                     238+ punch '* *Want               00000000 00000000'                        01-00022
                                     239  punch '*gpr'                                                           01640000
                                     240  punch '* *Gpr R3 00000000'                                             01650000
                                     241  punch '* *Gpr R4 00000000'                                             01660000
                                     242  punch '* *Done'                                                        01670000
                                     243  end                                                                    01680000
1                                                 Relocation Dictionary                                         Page    9
-   Pos.Id   Rel.Id   Address  Type  Action                                                  HLASM R6.0  2015/10/06 15.21
0  00000001 00000001 000001A8   A 8     +
1                               Ordinary Symbol and Literal Cross Reference                                     Page   10
-Symbol   Length   Value     Id    R Type Asm  Program   Defn References                     HLASM R6.0  2015/10/06 15.21
0b        ***QUALIFIER*** 00000001     U                   57   63    66    70    73    77    80
 facilities
               8 00000880 00000001     D  D               127   51M   52    53M  220
 faclist       8 00000888 00000001     D  D               128   52M  228
 fmask         1 00000890 00000001     X  X               129   53
 go_ni         8 00000200 00000001     D  D                49   43
 inst_ni       4 000002BE 00000001     I                  105   61X
 inst_niy      6 000002C2 00000001     I                  106   64X
 inst_oi       4 000002C8 00000001     I                  107   68X
 inst_oiy      6 000002CC 00000001     I                  108   71X
 inst_xi       4 000002D2 00000001     I                  109   75X
 inst_xiy      6 000002D6 00000001     I                  110   78X
 loop          2 00000220 00000001     H  H                59   83B
 ni            1 00000000 00000001     J                    6   48U  114   126   130   135   142   149   157   164   171
                                                               178   185   192   199   206   213   220   228   232
 nibytes       1 00000800 00000001     X  X               115   56    57U  104U  105M  135
 nicc          1 00000818 00000001     X  X               118   63M  157
 niybytes      1 00002000 00000001     X  X               131  106M  178
 niycc         1 00000820 00000001     X  X               119   66M  199
 niyzero       1 0000084C 00000001     R  A               125   95M   97M   99M
 nizero        1 00000848 00000001     R  A               124   86M   88M   90M  232
 oibytes       1 00000808 00000001     X  X               116  107M  142
 oicc          1 00000828 00000001     X  X               120   70M  164
 oiybytes      1 00002008 00000001     X  X               132  108M  185
 oiycc         1 00000830 00000001     X  X               121   73M  206
 stop          8 000002E0 00000001     D  D               111  102
 xibytes       1 00000810 00000001     X  X               117  109M  149
 xicc          1 00000838 00000001     X  X               122   77M  171
 xiybytes      1 00002010 00000001     X  X               133  110M  192
 xiycc         1 00000840 00000001     X  X               123   80M  213
1                                  Unreferenced Symbols Defined in CSECTs                                       Page   11
-  Defn  Symbol                                                                              HLASM R6.0  2015/10/06 15.21
0   157  ccni
    199  ccniy
    164  ccoi
    206  ccoiy
    171  ccxi
    213  ccxiy
    178  niyo
    232  n0
    185  oiyo
    135  tmp1
    220  tmp2
    228  tmp3
    142  tmp8
    149  tmp9
    192  xiyo
1                                          Macro and Copy Code Source Summary                                   Page   12
- Con Source                                        Volume    Members                        HLASM R6.0  2015/10/06 15.21
0     PRIMARY INPUT                                           COMP     DISPLAY  DOTEST
1                                                      Using Map                                                Page   13
-                                                                                            HLASM R6.0  2015/10/06 15.21
   Stmt  -----Location----- Action ----------------Using----------------- Reg Max     Last Label and Using Text
           Count      Id           Type          Value    Range     Id        Disp    Stmt
0    48  00000200  00000001 USING  ORDINARY    00000000 00001000 00000001   0 00890    102 ni,0
     57  0000021E  00000001 USING  LABELED     00000800 00001000 00000001   2 00040     80 b.nibytes,2
    103  000002BE  00000001 DROP                                            0              0
    104  000002BE  00000001 USING  ORDINARY    00000800 00001000 00000001   2 01810    110 nibytes,2
1                                   General Purpose Register Cross Reference                                    Page   14
- Register  References (M=modified, B=branch, U=USING, D=DROP, N=index)                      HLASM R6.0  2015/10/06 15.21
0    0(0)      48U   50M   50    51    51M   54M   83M  103D
     1(1)      55M   61    64    68    71    75    78    82M
     2(2)      56M   57U   81M   81   104U
     3(3)      93M
     4(4)      58M   58    62M   63    65M   66    69M   70    72M   73    76M   77    79M   80    84M   84    92M   93
               94M   94   101M
     5(5)      85M   85    87M   89M   91M   92M   96M   98M  100M  101M
     6(6)    (no references identified)
     7(7)    (no references identified)
     8(8)    (no references identified)
     9(9)    (no references identified)
    10(A)    (no references identified)
    11(B)    (no references identified)
    12(C)    (no references identified)
    13(D)    (no references identified)
    14(E)    (no references identified)
    15(F)    (no references identified)
1                                  Diagnostic Cross Reference and Assembler Summary                             Page   15
-                                                                                            HLASM R6.0  2015/10/06 15.21
0     No Statements Flagged in this Assembly
 HIGH LEVEL ASSEMBLER, 5696-234, RELEASE 6.0
0SYSTEM: CMS 22                     JOBNAME: (NOJOB)     STEPNAME: (NOSTEP)   PROCSTEP: (NOPROC)
0Data Sets Allocated for this Assembly
  Con DDname   Data Set Name                                Volume  Member
   P1 SYSIN    (UNKNOWN.EXIT.LIBRARY)
   P2          .pseudo.pipeline.                            .none.  pipe
   L1 SYSLIB   FPLGPI   MACLIB   A1                         JPH100
   L2          FPLOM    MACLIB   A1                         JPH100
   L3          DMSGPI   MACLIB   S2                         MNT190
   L4          DMSOM    MACLIB   S2                         MNT190

 Input/Output Exit Statistics
 Exit Type  Name      Calls  ---Records---  Diagnostic
                             Added Deleted  Messages
 ADATA      FPLHLASX    437      0       0        0
 LISTING    FPLHLASX    415      0       0        0
 OBJECT     FPLHLASX     67      0       0        0
 SOURCE     FPLHLASX    171      1       0        0

   14808K allocated to Buffer Pool       Storage required     200K
     169 Primary Input Records Read            0 Library Records Read                  0 Work File Reads
       0 ASMAOPT Records Read                  4 Primary Print Records Written         0 Work File Writes
       0 Object Records Written                2 ADATA Records Written
0Assembly Start Time: 15.21.59 Stop Time: 15.22.02 Processor Time: 00.00.00.4547
 Return Code 000
